:100000000C942A000C9440040C9469040C949204FF
:100010000C9447000C9447000C9447000C94470044
:100020000C9447000C9447000C9447000C94470034
:100030000C9447000C9447000C9447000C94470024
:100040000C9447000C9447000C9447000C94470014
:100050000C94470011241FBECFE5D8E0DEBFCDBF12
:1000600010E0A0E6B0E0ECE2F1E102C005900D92F4
:10007000A43BB107D9F710E0A4EBB0E001C01D929A
:10008000AB3BB107E1F70E9450070C9494080C9425
:1000900000002F923F924F925F926F927F928F92C9
:1000A0009F92AF92BF92CF92DF92EF92FF920F9307
:1000B0001F93DF93CF93CDB7DEB728970FB6F89491
:1000C000DEBF0FBECDBF8C017C836B8381E0898353
:1000D0001A82EE24FF24C80103969E838D83F801C3
:1000E0003696F887EF83E9E02E2E312C200E311E54
:1000F0007CE0472E512C400E511E6E010894C11C0D
:10010000D11C6FE0662E712C600E711E52E1852E9F
:10011000912C800E911E45E1A42EB12CA00EB11E93
:100120003BC0C301B6010E9441058981882311F4B7
:1001300081E011C0C401B6010E9441058981882374
:1001400011F482E008C0C501B6010E944105898111
:100150008823C1F483E0F701EE0FFF1FEE0FFF1FAE
:10016000E80FF11DE756FF4F8081EB81FC81808312
:1001700080EA9FE0E8ECF0E03197F1F70197D1F7E2
:10018000F1E0FA838981882361F10894E11CF11C74
:1001900084E0E816F10429F1C80161E00E946605D7
:1001A0008D819E8161E00E9466058F81988561E066
:1001B0000E946605C10161E00E946605C701880FC3
:1001C000991F8E0D9F1D800F911F60E00E94660594
:1001D000C201B6010E9441058981882309F0A1CF9F
:1001E000BACF8A8128960FB6F894DEBF0FBECDBF76
:1001F000CF91DF911F910F91FF90EF90DF90CF9003
:10020000BF90AF909F908F907F906F905F904F9036
:100210003F902F900895EF92FF920F931F93CF93EB
:10022000DF937C01009711F480E023C00E94BB049F
:10023000C70103960E94BB04C70106960E94BB0437
:10024000C70109960E94BB04C0E0D0E08E01000FF8
:10025000111F0C0F1D1F045F1F4F0E0D1F1DC80126
:100260000E94BB04C8010E942B062196C430D10510
:1002700069F7DF91CF911F910F91FF90EF90089553
:100280000F931F93CF93DF93EC01009711F480E05D
:100290001EC0062F10E0617006960E946605159537
:1002A0000795602F6170CE0109960E94660515952D
:1002B0000795602F6170CE010C960E94660515951A
:1002C00007950170CE010F96602F0E946605DF91A1
:1002D000CF911F910F910895FF920F931F93009755
:1002E00011F480E012C08C010D5F1F4FC80161E066
:1002F0000E9466053DE0F32E8F2D8A95F1F7C80127
:1003000060E00E946605FA94F1F71F910F91FF904B
:1003100008951F93CF93DF93EC01162F009711F4EC
:1003200080E013C061E00E946605612F62956F70E6
:10033000CE010E944001CE010E946C01CE01612FCE
:100340000E944001CE010E946C01DF91CF911F916C
:100350000895CF92DF92EF92FF920F931F93DF9356
:10036000CF93CDB7DEB72A970FB6F894DEBF0FBE96
:10037000CDBF7C018B01009711F480E035C0611581
:10038000710521F460E30E9489012DC077FF06C04A
:10039000109501951F4F6DE20E94890140E06E01AA
:1003A0000894C11CD11CF601E40FF11DC8016AE0DC
:1003B00070E00E946D08805D80834F5FC8016AE035
:1003C00070E00E946D088B016115710561F7142FB3
:1003D00008C0FE01E10FF11DC70160810E94890183
:1003E00011501123B1F781E02A960FB6F894DEBFC1
:1003F0000FBECDBFCF91DF911F910F91FF90EF9076
:10040000DF90CF9008950F931F93CF93DF938C01CC
:10041000EB01009711F480E009C080E004C0219650
:10042000C8010E94890168816623C9F7DF91CF91D5
:100430001F910F9108951F93CF93DF93EC01162F17
:10044000009711F480E013C060E00E946605612F00
:1004500062956F70CE010E944001CE010E946C0136
:10046000CE01612F0E944001CE010E946C01DF91FC
:10047000CF911F9108950F931F93CF93DF93EC01BA
:100480008B010097F9F061157105E1F0423061F0E0
:10049000433018F4413089F405C0433039F044301A
:1004A00061F406C0215805C0215403C02D5601C077
:1004B0002D52CE01622F0E941B02CE01B8010E9474
:1004C000030201C080E0DF91CF911F910F91089549
:1004D0001F93CF93DF93EC01162F009711F480E068
:1004E0001BC0423061F0433018F4413089F405C03C
:1004F000433039F0443061F406C0215805C021541E
:1005000003C02D5601C02D52CE01622F0E941B0246
:10051000CE01612F0E948901DF91CF911F91089533
:10052000BF92CF92DF92EF92FF920F931F93CF93E0
:10053000DF937C01162FB42E6901009711F480E03F
:1005400017C0602F685B0E941B02C0E0D0E0F6017C
:10055000EC0FFD1FC70160810E9489012196C83000
:10056000D105A9F7C701602F412F2B2D0E946802EA
:10057000DF91CF911F910F91FF90EF90DF90CF907F
:10058000BF9008950F931F93CF93DF93EC010097D3
:1005900011F480E046C00E94BB04CE0103960E9485
:1005A000BB04CE0106960E94BB04CE0109960E94B0
:1005B000BB04CE010C960E94BB04CE010F960E9494
:1005C000BB0480E49CE90197F1F7CE0163E30E944C
:1005D0001B0200E117E2C8010197F1F7CE0162E3C7
:1005E0000E941B028CE291E00197F1F7CE0168E2D4
:1005F0000E941B02CE0161E00E941B02CE0162E05C
:100600000E941B02CE0166E00E941B02CE016CE03C
:100610000E941B02CE0160E80E941B02F801319784
:10062000F1F7DF91CF911F910F9108950F931F93D1
:10063000DF93CF930F92CDB7DEB7FC018B0100970C
:1006400031F18381813079F4CF01BE016F5F7F4F3B
:100650000E94410589818130B9F08823C1F4F801F5
:10066000108281E015C0882391F4CF01BE016F5F35
:100670007F4F0E9441058981813019F4F801108271
:1006800007C0882321F481E0F801808301C080E065
:100690000F90CF91DF911F910F910895CF93DF932A
:1006A000EC01009711F480E005C00E94BB04CE016C
:1006B0000E942B06DF91CF910895DC01009709F489
:1006C00052C011968C9111979C9180FF22C091305D
:1006D00071F0913030F0923081F0933009F043C0E6
:1006E00012C0E62FF0E0E755FF4F808121C0E62FD2
:1006F000F0E0E755FF4F808123C0E62FF0E0E7559B
:10070000FF4F808125C0E62FF0E0E755FF4F808145
:1007100027C0913079F0913028F0923099F09330E1
:1007200011F518C0E62FF0E0E755FF4F8081809566
:100730008BBB17C0E62FF0E0E755FF4F8081809517
:1007400088BB0FC0E62FF0E0E755FF4F8081809512
:1007500085BB07C0E62FF0E0E755FF4F808180950D
:1007600082BB81E0089580E00895FC01009711F4B8
:1007700080E00895808161E00E94B706089581308D
:1007800021F1813020F0823009F04AC03CC08BB7A3
:1007900080648BBF613051F0613028F0623061F0CD
:1007A0006330F1F50CC085B78E7F02C085B78160DC
:1007B00085BF85B78D7F31C085B78E7F02C085B775
:1007C000816085BF85B7826028C08BB780688BBF8A
:1007D000613051F0613028F0623061F0633001F532
:1007E0000CC085B78B7F02C085B7846085BF85B795
:1007F000877F13C085B78B7F02C085B7846085BFB4
:1008000085B788600AC08BB780628BBF623019F4ED
:1008100085B78F7B02C085B7806485BF81E008956E
:1008200080E00895813049F0813020F0823051F02D
:1008300080E008958BB78F7B02C08BB78F778BBF1B
:1008400081E008958BB78F7D8BBF81E00895813063
:1008500059F0813020F0823069F080E00895709383
:10086000B9006093B80004C07093B7006093B600FD
:1008700081E008957093B5006093B40081E008951D
:100880001F920F920FB60F9211242F933F934F9305
:100890005F936F937F938F939F93AF93BF93EF93E8
:1008A000FF93E091B800F091B900309709F00995F5
:1008B000FF91EF91BF91AF919F918F917F916F9138
:1008C0005F914F913F912F910F900FBE0F901F900E
:1008D00018951F920F920FB60F9211242F933F93EA
:1008E0004F935F936F937F938F939F93AF93BF9338
:1008F000EF93FF93E091B600F091B700309709F0C5
:100900000995FF91EF91BF91AF919F918F917F9149
:100910006F915F914F913F912F910F900FBE0F906C
:100920001F9018951F920F920FB60F9211242F93BC
:100930003F934F935F936F937F938F939F93AF9367
:10094000BF93EF93FF93E091B400F091B50030971F
:1009500009F00995FF91EF91BF91AF919F918F9110
:100960007F916F915F914F913F912F910F900FBEAB
:100970000F901F901895FC01009709F480C08281A8
:100980008130D9F580818130A1F0813030F0823022
:10099000E1F0833009F073C024C02AB381E090E015
:1009A000018002C0880F991F0A94E2F7282B2ABB06
:1009B00064C027B381E090E0018002C0880F991FD6
:1009C0000A94E2F7282B27BB58C024B381E090E0BB
:1009D000018002C0880F991F0A94E2F7282B24BBDC
:1009E0004CC021B381E090E0018002C0880F991FC4
:1009F0000A94E2F7282B21BB40C0882309F03FC0AE
:100A000080818130A1F0813028F08230E9F083309C
:100A1000B1F527C02AB381E090E0018002C0880FC1
:100A2000991F0A94E2F7809582238ABB26C027B3D8
:100A300081E090E0018002C0880F991F0A94E2F7DC
:100A40008095822387BB19C024B381E090E00180A8
:100A500002C0880F991F0A94E2F78095822384BB15
:100A60000CC021B381E090E0018002C0880F991F83
:100A70000A94E2F78095822381BB81E0089580E0AB
:100A80000895FC01DB010097F9F061157105E1F0B3
:100A90008081813049F0813028F0823039F0833014
:100AA00099F406C089B305C086B303C083B301C0FF
:100AB00080B390E0018002C0959587950A94E2F793
:100AC00081708C9381E0089580E00895FC01009787
:100AD00009F47FC06130D9F580818130A1F0813087
:100AE00030F08230E1F0833009F073C024C02BB3C2
:100AF00081E090E0018002C0880F991F0A94E2F71C
:100B0000282B2BBB64C028B381E090E0018002C099
:100B1000880F991F0A94E2F7282B28BB58C025B3E9
:100B200081E090E0018002C0880F991F0A94E2F7EB
:100B3000282B25BB4CC022B381E090E0018002C08D
:100B4000880F991F0A94E2F7282B22BB40C0662326
:100B500009F03FC080818130A1F0813028F08230DF
:100B6000E9F08330B1F527C02BB381E090E001803C
:100B700002C0880F991F0A94E2F7809582238BBBED
:100B800026C028B381E090E0018002C0880F991F41
:100B90000A94E2F78095822388BB19C025B381E0CF
:100BA00090E0018002C0880F991F0A94E2F78095B7
:100BB000822385BB0CC022B381E090E0018002C09B
:100BC000880F991F0A94E2F78095822382BB81E007
:100BD000089580E00895FC010097D9F1808181306B
:100BE00099F0813028F08230D9F0833091F524C01B
:100BF0002BB381E090E0018002C0880F991F0A9416
:100C0000E2F728272BBB23C028B381E090E00180C6
:100C100002C0880F991F0A94E2F7282728BB17C043
:100C200025B381E090E0018002C0880F991F0A94EB
:100C3000E2F7282725BB0BC022B381E090E00180BA
:100C400002C0880F991F0A94E2F7282722BB81E08F
:100C5000089580E00895FC010097F1F182818823D6
:100C6000D9F58081813099F0813028F08230D9F037
:100C7000833091F524C02BB381E090E0018002C065
:100C8000880F991F0A94E2F7282B2BBB23C028B3A7
:100C900081E090E0018002C0880F991F0A94E2F77A
:100CA000282B28BB17C025B381E090E0018002C04B
:100CB000880F991F0A94E2F7282B25BB0BC022B39B
:100CC00081E090E0018002C0880F991F0A94E2F74A
:100CD000282B22BB81E0089580E00895FC01009755
:100CE00009F443C08281882309F03FC080818130AC
:100CF000A1F0813028F08230E9F08330B1F527C0CF
:100D00002BB381E090E0018002C0880F991F0A9404
:100D1000E2F7809582238BBB26C028B381E090E068
:100D2000018002C0880F991F0A94E2F78095822300
:100D300088BB19C025B381E090E0018002C0880F14
:100D4000991F0A94E2F78095822385BB0CC022B3D9
:100D500081E090E0018002C0880F991F0A94E2F7B9
:100D60008095822382BB81E0089580E00895613000
:100D7000A9F4813051F0813028F0823049F083307D
:100D800009F509C08FEF8ABB1BC08FEF87BB18C066
:100D90008FEF84BB15C08FEF81BB12C0662391F427
:100DA000813049F0813028F0823039F0833051F4BD
:100DB00006C01ABA05C017BA03C014BA01C011BAE6
:100DC00081E0089580E00895FB016115710599F0B7
:100DD000813049F0813028F0823039F0833059F485
:100DE00006C089B305C086B303C083B301C080B316
:100DF000808381E0089580E00895813051F0813052
:100E000030F0823041F0833049F080E008956BBBD0
:100E100003C068BB01C065BB81E0089562BB81E08F
:100E20000895813061F0813030F0823061F083309C
:100E300079F080E008958BB380958BBB07C088B3B1
:100E4000809588BB03C085B3809585BB81E00895FC
:100E500082B3809582BB81E008954B3261F04C32C1
:100E600018F44A3229F40FC04D3249F04F3299F04C
:100E700020E030E013C09B01280F391F0FC09C01F8
:100E8000261B370B0BC0689F9001699F300D789F20
:100E9000300D112403C00E946D089B01C901089503
:100EA0008F929F92BF92CF92DF92EF92FF920F9319
:100EB0001F93DF93CF930F92CDB7DEB787E890E013
:100EC0000E94C2028093BA008FE690E00E940B015C
:100ED0008093BA0010E04E010894811C911C8FE6AB
:100EE00090E0B4010E9449008823C9F3D9802DE223
:100EF000D21649F03BE2D31631F08AE2D81619F047
:100F00002FE2D21641F487E890E06D2D0E9489010E
:100F1000BB24B3942CC087E890E06D2D0E9489011A
:100F2000C70173E0880F991F7A95E1F7EE0CFF1C5B
:100F30008E0D9F1D2981E22EFF2420ED3FEFE20E52
:100F4000F31EE80EF91E1F5F143049F68E010F5F85
:100F50001F4F8FE690E0B8010E9449008823C9F333
:100F6000D98087E890E06D2D0E948901BB24CC24B4
:100F70004E010894811C911C8FE690E0B4010E9400
:100F800049008823C9F369816D3389F487E890E0CB
:100F90000E9489010115110549F53FE2D31631F58B
:100FA00087E890E060E670E00E9403022AC0C80172
:100FB00053E0880F991F5A95E1F7000F111F800F1A
:100FC000911F062F10E000531040080F191F87E8EB
:100FD00090E00E948901C39484E0C81669F6BB20A2
:100FE00081F487E890E069810E948901C701B80116
:100FF0004D2D0E942D077C0187E890E0B7010E94EB
:10100000A9014E010894811C911C8FE690E0B40167
:101010000E9449008823C9F38981833231F487E82B
:1010200090E061E00E941B02F0CF87E890E061E071
:101030000E941B0287E890E068E670E00E940302CD
:10104000C98087E890E06C2D0E948901DD2400E0D2
:1010500010E08FE690E0B4010E9449008823C9F3B4
:1010600069816D3389F487E890E00E948901011558
:10107000110539F52FE2C21621F587E890E060E608
:1010800070E00E940302C1CFC80133E0880F991FAE
:101090003A95E1F7000F111F800F911F062F10E006
:1010A00000531040080F191F87E890E00E94890143
:1010B000D39434E0D31669F687E890E069810E9402
:1010C0008901C701B8014C2D0E942D077C0187E8DA
:1010D00090E0B7010E94A90198CF97FB092E07263F
:1010E0000AD077FD04D00CD006D000201AF47095F9
:1010F00061957F4F0895F6F7909581959F4F0895DC
:10110000AA1BBB1B51E107C0AA1FBB1FA617B7072D
:1011100010F0A61BB70B881F991F5A95A9F7809549
:0C1120009095BC01CD010895F894FFCF1C
:10112C00496E76616C696400616E7377657200025A
:10113C000501020401020301020201030700030678
:10114C00000305000303000003010002010100017C
:10115C000101010102010104013738392F34353600
:10116C002A3132332D23303D2B3F065B4F666D7D8C
:04117C00077F6F007A
:00000001FF
